:100B6200456E7465722050494E3A00496E76616C4A
:100B720069642050494E00417661696C61626C651E
:100B820020536C6F74733A005041524B494E4720C8
:090B920046554C4C00FEFDFBF73A
:100C6A000118050414313233000119000C0831321D
:0A0C7A00333435363738392A302379
:100C4900E4FFEFC39447748094805014E4F58CF565
:100C59008A758901C28DD28C308DFDC28C0F80E2DC
:010C69002268
:080BFC00C2B1D2B27F027E00FB
:100C0400E4FDFCC3ED9FEC9E5015E4FBFA0BBB0026
:0F0C1400010ABA04F8BBFBF50DBD00010C80E42A
:010C230022AE
:0A0C85008FA0C2B0120BFCC2B22215
:0A0C8F008FA0D2B0120BFCC2B222FB
:100C24008B208A218922AB20AA21A9221208F660EE
:100C3400130522E5227002052114F91208F6FF12A9
:050C44000C8F80E2228C
:100BD3007F147E00120C047F38120C857F057E0083
:100BE300120C047F0C120C857F06120C857F0112F8
:090BF3000C857F027E00020C0457
:1009A60078217C007D007BFF7A0B79977E007F049F
:1009B6001208D0E4F520C3E5209404748094805096
:1009C6006B7590FF74212520F8E6F590120C00E473
:1009D600F9E9C3940374809480504DE92404FF7EA2
:1009E600007401A807088005C333CE33CED8F9FFBB
:1009F600AD90EF5D702FE92404FF7E007401A80717
:100A0600088005C333CE33CED8F9FFAD90EF5D60D5
:100A1600E57F0A7E00120C04E52075F003A4240885
:0E0A260029F8E6FF220980A90520808A7F00BA
:010A3400229F
:10090F00E4F51FC3E51F940474809480500B741A90
:10091F00251FF8E4F6051F80EA7F01120C857BFF87
:10092F007A0B7962120C247FC0120C85E4F519C37F
:10093F00E51994037480948050191209A68F1EE54F
:10094F001E60EC741A2519F8A61EAF1E120C8F0527
:10095F001980DC7F01E4F51FE51FC39403748094B5
:10096F008050187414251FF8E6FE741A251FF8E638
:10097F006E6004E4FF8004051F80DDEF70187F01B7
:10098F00120C857BFF7A0B796D120C247FE87E03A6
:06099F00120C0402090F16
:0109A500222F
:100B27007F01120C857BFF7A0B7979120C247FC029
:100B3700120C85E51870097BFF7A0B798A020C2461
:100B4700E51875F00A842430FF120C8FE51875F04C
:0B0B57000A84E5F02430FF120C8F220E
:100B9B00758901EF64017013D2B4C2B5D3E5189413
:100BAB000074809480401515188011D2B6C2B7C35B
:100BBB00E51894057480948050020518120C49C2F4
:080BCB00B4C2B5C2B6C2B722E4
:100AC1007580FF120BD3120B2720803D7F147E000F
:100AD100120C04208033D3E5189400748094804074
:100AE1000A12090F7F01120B9B80157F01120C85E1
:100AF1007BFF7A0B798A120C247FD07E07120C04BB
:100B0100120B273080FD120C492081BD7F147E001D
:100B1100120C042081B3E4FF120B9B120B273081CE
:060B2100FD120C4980A347
:03000000020A35BC
:0C0A3500787FE4F6D8FD758124020A7C6D
:10080000E709F608DFFA8046E709F208DFFA803EDA
:1008100088828C83E709F0A3DFFA8032E309F608C7
:10082000DFFA8078E309F208DFFA807088828C832F
:10083000E309F0A3DFFA806489828A83E0A3F608E3
:10084000DFFA805889828A83E0A3F208DFFA804CBD
:1008500080D280FA80C680D4806980F28033801094
:1008600080A680EA809A80A880DA80E280CA8033FD
:1008700089828A83ECFAE493A3C8C582C8CCC58375
:10088000CCF0A3C8C582C8CCC583CCDFE9DEE78045
:100890000D89828A83E493A3F608DFF9ECFAA9F0C4
:1008A000EDFB2289828A83ECFAE0A3C8C582C8CC1A
:1008B000C583CCF0A3C8C582C8CCC583CCDFEADE33
:1008C000E880DB89828A83E493A3F208DFF980CC95
:1008D00088F0EF60010E4E60C388F0ED2402B4048E
:1008E0000050B9F582EB2402B4040050AF23234535
:0608F00082239008507302
:1008F600BB010689828A83E0225002E722BBFE0200
:09090600E32289828A83E4932232
:100A4100020AC1E493A3F8E493A34003F68001F200
:100A510008DFF48029E493A3F85407240CC8C333B6
:100A6100C4540F4420C8834004F456800146F6DF85
:100A7100E4800B0102040810204080900C6AE47E9F
:100A8100019360BCA3FF543F30E509541FFEE4937A
:100A9100A360010ECF54C025E060A840B8E493A341
:100AA100FAE493A3F8E493A3C8C582C8CAC583CA6C
:100AB100F0A3C8C582C8CAC583CADFE9DEE780BE24
:010C8400006F
:00000001FF
